:107000004BC0000064C0000062C0000060C000000F
:107010005EC000005CC000005AC0000058C0000004
:1070200056C0000054C0000052C000007FC50000E0
:107030004EC000004CC000004AC0000048C0000024
:1070400046C0000044C0000042C0000040C0000034
:107050003EC000003CC000003AC0000038C0000044
:1070600036C0000034C0000032C0000030C0000054
:107070002EC000002CC000002AC0000028C0000064
:1070800026C0000024C0000022C0000020C0000074
:107090001EC000001CC0000011241FBECFEFD4E0B2
:1070A000DEBFCDBF11E0A0E0B1E0EAE0FEE702C044
:1070B00005900D92A037B107D9F711E0A0E7B1E034
:1070C00001C01D92AD38B107E1F74ED39CC698CFF1
:1070D000982F15C08091F200882371F48091E80008
:1070E0008B7F8093E80003C08EB3882351F080919A
:1070F000E80082FFF9CF02C08091F10091509923FE
:1071000049F7089520917D0130917C0180917B01A8
:1071100090917A018093710190937201C9018093DB
:1071200073019093740108951F93DF93CF9300D060
:1071300000D000D0CDB7DEB7809177018823D9F099
:1071400080917801843049F480917901882339F461
:1071500080917A018F3F19F40EC0853061F08AE08A
:107160008093000183E0809376018091EB00806240
:107170008093EB00CFC080917801843009F458C02F
:10718000853030F4813059F0833009F0C3C01DC020
:10719000853009F48CC0863009F0BCC0AFC01091B6
:1071A0007901123008F0B6C0ADDF112361F480918F
:1071B00071019091720123E0FC0120935700E89542
:1071C00007B600FCFDCF85E008C0809179018823D7
:1071D00011F0823029F496DF89E0809300019AC093
:1071E000813009F097C020E030E040E050E0F90144
:1071F00084918F3F81F0CA01AA27BB278093750134
:1072000030937201209371018AE08093000185E040
:10721000809376017FC02F5F3F4F4F4F5F4F2030ED
:10722000F0E73F07F0E04F07F0E05F0701F772C0BB
:10723000809179018330B1F481E080937001809175
:107240007A01882361F42CE088E190E00FB6F8948D
:10725000A895809360000FBE209360005BC01092E1
:10726000010158C0882309F055C080917A018F3FF1
:1072700009F050C0E0E0F0E093E085E09093570023
:10728000E89507B600FCFDCF80935700E89507B658
:1072900000FCFDCFE058FF4F20E7E030F20771F728
:1072A00081E180935700E8951092770133C0DE01A9
:1072B0001196E5E0F1E083E001900D928150E1F755
:1072C000DE011496E2E0F1E083E001900D9281503E
:1072D000E1F790917A0180917901882329F4FE01E8
:1072E000E90FF11D818107C08130A1F4FE01BC9737
:1072F000E90FF11D8081809380010CC0809179019C
:10730000833041F480917A01882321F480917B01BC
:107310008093750126960FB6F894DEBF0FBECDBFE1
:10732000CF91DF911F9108952F923F924F925F92DC
:107330007F928F929F92AF92BF92CF92DF92EF9205
:10734000FF920F931F93DF93CF9300D0CDB7DEB79B
:10735000809185018F77813209F0F2C100918B0114
:1073600010918C0110937F0100937E018091860122
:10737000833009F4AFC1843030F4813071F0823051
:1073800009F0DEC112C1853009F4C2C1853008F4AC
:10739000B7C1863009F0D4C1CAC18091E800877FA7
:1073A0008093E80080917001882319F0BDDE10926F
:1073B00070010115110529F42BC08EB3882309F43F
:1073C000BFC18091E80082FFF8CF8091F1008093E7
:1073D000780198012150304030937F0120937E0145
:1073E000E9E7F1E00CC08091F10081932150304039
:1073F00061E0EE37F60719F43183208308C08091ED
:10740000F200882381F730937F0120937E018CDE88
:1074100080910001853009F0C4C080917E01909177
:107420007F01892B21F482E080930001BAC08AE1B8
:107430004FDEE0907101F09072018E2D8F7148DE69
:1074400080907301909074010894811C911C8401B8
:107450000E191F09089481089108809179018823E9
:1074600009F09AC0C801969587959A838983C701C8
:10747000A0917501B0E09C01AD0162E0E62EF12C17
:10748000012D112DE20EF31E041F151F59016A0173
:1074900090E077247394B5E0A3E04CC08091F200B3
:1074A000882371F48091E8008B7F8093E80004C00A
:1074B0008EB3882309F444C18091E80082FFF8CF9D
:1074C000E981FA813197FA83E9838091F100682F8D
:1074D0008091F100782FF5010B0170925700E8952B
:1074E00011249F5F903421F029803A802328A9F449
:1074F000F901B0935700E89507B600FCFDCF29804D
:107500003A80232851F0F701A0935700E89507B679
:1075100000FCFDCFA801970190E042E0242E312C21
:10752000412C512CE20CF31C041D151DA20CB31CA4
:10753000C41CD51C49805A80452809F0AFCF9092D1
:1075400072018092710181E180935700E89527C014
:107550008091F200882371F48091E8008B7F809302
:10756000E80004C08EB3882309F4EAC08091E800E3
:1075700082FFF8CF6091F1008091710190917201CA
:1075800034D48091710190917201019690937201AF
:10759000809371010150104001151105C9F680E179
:1075A00097DD8091E8008B7FBFC08091E800877FE6
:1075B0008093E80004C08EB3882309F4C1C0809191
:1075C000E80080FFF8CF80910001893091F08A3087
:1075D00069F480917901813049F480917101909131
:1075E00072018093F1009093F1009BC08091800123
:1075F00096C0609173017091740120917101309176
:1076000072016F5F7F4F7B01E21AF30A6150704095
:1076100080917901882389F5870116950795C9011D
:10762000A0917501B0E09C01AD011FC08091F200F6
:10763000803271F48091E8008E7F8093E80004C06E
:107640008EB3882309F47CC08091E80080FFF8CFD6
:10765000F901859194918093F1009093F10001508C
:1076600010402E5F3F4F4F4F5F4F01151105F1F650
:10767000709372016093710129C0823039F523C083
:107680008091F200803271F48091E8008E7F8093C7
:10769000E80004C08EB3882309F452C08091E8004A
:1076A00080FFF8CF0091710110917201C80195D34C
:1076B0008093F1000F5F1F4F1093720100937101CF
:1076C0000894E108F108E114F104D1F682E0809316
:1076D000000127C08091E800877F8093E8008091B7
:1076E00076018093F1001092F1001092F100109257
:1076F000F100809100018093F1001092F10011C01F
:107700008091E800877F8093E8001092760117C08F
:107710008091E800877F8093E8008091000180934A
:10772000F1008091E8008E7F8093E80008C080918E
:10773000E800877F8093E80082E08093000194D185
:107740000F900F90CF91DF911F910F91FF90EF90CD
:10775000DF90CF90BF90AF909F908F907F905F9081
:107760004F903F902F9008950F931F9324B720932D
:107770008D0184B7877F84BF88E10FB6F89480932A
:107780006000109260000FBE91E080E80FB6F894A0
:1077900080936100909361000FBE57985F9A80EECE
:1077A0009EE20197F1F74F9902C023FF08C0E0E085
:1077B000F0E0859194918F5F9F4F09F04EC081E07A
:1077C00085BF82E085BF5898509A589AA0D1789486
:1077D0008FEF809382011092810183E085BD11E0DB
:1077E0000EEF25C0F1D2AA9B1AC0AA9A80918101FE
:1077F00090918201882349F09F3F29F410928101E2
:10780000009382010CC09F5F08C0992329F4109354
:1078100081011093820103C091509093820196B52B
:1078200080918201981710F4589A01C0589880915D
:1078300001018823B9F680917001882399F680911F
:10784000E00081608093E0005098589815BC16BC09
:1078500087E085BB81E085BF15BE90E080E80FB66C
:10786000F89480936100909361000FBE5898509AED
:10787000589AE0E0F0E00995FA01923039F093303F
:1078800051F09130E9F488E091E017C08AE191E08D
:107890002BE130E019C0882329F485E391E024E04E
:1078A00030E012C0813029F489E391E020E230E039
:1078B0000BC0823029F48BE591E022E130E004C076
:1078C00080E090E020E030E091838083C90108955A
:1078D0009B01AC0107B600FCFDCFF999FECF83E018
:1078E000F90180935700E89507B600FCFDCF81E1D0
:1078F00080935700E89508959B01AC0107B600FC02
:10790000FDCFF999FECF85E0F90180935700E89506
:1079100007B600FCFDCF81E180935700E8950895FC
:107920000F931F938B019C0107B600FCFDCFF999C3
:10793000FECF81E0F8010A0180935700E8951124F9
:107940001F910F91089521E2FC012093570024918B
:10795000822F089529E0FC01209357002491822F63
:107960000895E1E0F0E089E0809357008491089564
:10797000982F07B600FCFDCFF999FECF909589E0CE
:10798000E1E0F0E0092E80935700E89508959C010E
:1079900040918B0150918C014617570718F4F9015B
:1079A00090E03CC06115710511F0AB01F8CF8091FA
:1079B000E8008E7F8093E80040E050E0F0CF8EB387
:1079C0008823E9F18530E9F18091E80083FF02C066
:1079D00081E008958091E80082FD2BC08091E8004D
:1079E00080FF1CC08091F200282F30E007C08191F9
:1079F0008093F100415050402F5F3F4F411551059A
:107A000019F02032310598F390E02032310509F465
:107A100091E08091E8008E7F8093E8004115510548
:107A200071F6992361F605C08EB3882341F0853045
:107A300041F08091E80082FFF7CF80E0089582E076
:107A4000089583E008958091EB0081608093EB00BE
:107A50001092ED006093EC004093ED008091EE00F9
:107A6000881F8827881F08958091850188238CF4BA
:107A700003C08EB38823B1F08091E80082FFF9CF74
:107A80008091E8008B7F8093E80008958EB388236F
:107A900049F08091E80080FFF9CF8091E8008E7F67
:107AA0008093E80008953CD03ED08091D8008F7735
:107AB0008093D8008091D80080688093D80080910E
:107AC000D8008F7D8093D80084E089BD86E089BD91
:107AD00009B400FEFDCF1EBA1092830180E060E081
:107AE00042E2B1DF8091E1008E7F8093E1008091DE
:107AF000E20081608093E2008091E20088608093E0
:107B0000E2008091E0008E7F8093E0000895E3E63C
:107B1000F0E080818E7F808381E080938401C3CFF9
:107B20001092E20008951092E10008951F920F92C2
:107B30000FB60F9211242F933F934F935F936F9340
:107B40007F938F939F93AF93BF93EF93FF93809116
:107B5000E10080FF16C08091E20080FF12C080919A
:107B6000E2008E7F8093E2008091E200806180934A
:107B7000E2008091D80080628093D80019BC1EBAC0
:107B800022D18091E10084FF2CC08091E20084FF2B
:107B900028C084E089BD86E089BD09B400FEFDCF20
:107BA0008091D8008F7D8093D8008091E1008F7EF6
:107BB0008093E1008091E2008F7E8093E2008091CB
:107BC000E20081608093E20080918301882331F498
:107BD0008091E30087FD02C081E001C084E08EBB9C
:107BE000F2D08091E10083FF21C08091E20083FF09
:107BF0001DC08091E100877F8093E10082E08EBB11
:107C0000109283018091E1008E7F8093E10080914A
:107C1000E2008E7F8093E2008091E2008061809399
:107C2000E20080E060E042E20EDFCDD0FF91EF9114
:107C3000BF91AF919F918F917F916F915F914F9184
:107C40003F912F910F900FBE0F901F9018951F938B
:107C5000DF93CF9300D0CDB7DEB7E5E8F1E08091B8
:107C6000F100819381E0ED38F807C9F75DDB809181
:107C7000E80083FF94C09091850180918601863051
:107C800009F440C0873030F4882359F0853009F07A
:107C900086C016C0883009F455C0893009F07FC00D
:107CA00063C0903819F0923809F079C08091E800EB
:107CB000877F8093E8001092F1001092F1004DC090
:107CC000992309F06CC0109187011F778091E30020
:107CD0008078812B8093E3008091E800877F8093F8
:107CE000E800C2DE8091E80080FFFCCF8091E300D5
:107CF00080688093E300112311F482E001C083E0E7
:107D00008EBB4DC09058923008F049C080918701D9
:107D10009091880160918901AE014F5F5F4FACDDAA
:107D2000BC01009709F43BC08091E800877F8093F5
:107D3000E80089819A812BDE8091E8008B7F809317
:107D4000E8002DC0903859F58091E800877F809336
:107D5000E800809183018093F1008091E8008E7F9C
:107D60008093E80081DE1BC09923C9F490918701BC
:107D70009230A8F48091E800877F8093E800909388
:107D8000830172DE80918301882331F48091E300C6
:107D900087FD02C081E001C084E08EBB14D08091D9
:107DA000E80083FF0AC08091E800877F8093E800A5
:107DB0008091EB0080628093EB000F900F90CF9149
:107DC000DF911F91089508958EB3882329F0809143
:107DD000E80083FF01C03BCF0895F999FECF92BD23
:107DE00081BDF89A992780B50895262FF999FECF7D
:107DF0001FBA92BD81BD20BD0FB6F894FA9AF99AC8
:0A7E00000FBE01960895F894FFCF1D
:107E0A0002011E958A20DCFB1201100100000020ED
:107E1A00EB03F02F00000102000109021B0001011F
:107E2A000080320904000000FE010200092103005B
:107E3A0000000C10010403090420034D00610074C2
:107E4A0000740061006900720054006500630068F4
:107E5A000020004C004C004300000012034C005567
:107E6A000046004100200044004600550000000082
:107FA00097CCAACCBDCCCFCCD5CCDBCCE1CC089542
:087FB000089508950895089555
:107FE000DFCFDFCFDFCFDFCFDFCFDFCFDFCFDFCF21
:087FF000DFCFDFCFDFCFDFCFD1
:087FF8000070000010DFFBDC4B
:040000030000700089
:00000001FF
