:1000000024C200003EC200003CC200000C94DB0B86
:1000100038C2000036C2000034C2000032C2000004
:1000200030C200002EC200002CC200006CC60000CE
:10003000F0C6000026C2000024C200000C94E30DAC
:1000400020C200001EC200001CC200001AC2000034
:1000500018C2000016C2000014C2000012C2000044
:1000600010C200000EC200000CC200000AC2000054
:1000700008C200003A0E8B0E290E290E5B0E5E0E92
:10008000860E290E290E290E860E7E0E290E290EA9
:10009000290E290E290E290E290E290E290E290EA8
:1000A000290E290E290E290E290E290E290E290E98
:1000B000290E290E290E290E290E290E290E290E88
:1000C000290E290E290E290E290E290E290E290E78
:1000D000290E290E290E290E290E290E290E290E68
:1000E000290E290E290E290E290E290E290E290E58
:1000F000290E290E290E290E290E290E290E290E48
:10010000290E290E290E290E290E290E290E290E37
:10011000290E290E3A0E5472792061646472657357
:1001200073203078003A20004F6B0A0052656164FA
:10013000792C2061646472203078003E2047697613
:100140006550687973416464723A207068797341CC
:100150006464723A203078002C20747970653A20FB
:100160003078003C205265706F727450687973412A
:100170006464722066726F6D203078003A20706877
:100180007973416464723A203078002C207479705D
:10019000653A203078003E20476976654F53444EDB
:1001A000616D653A20003E2047697665506F77653E
:1001B000725374617475733A203078003C20526534
:1001C000706F7274506F77657253746174757320B9
:1001D00066726F6D203078003A203078003C2052F3
:1001E0006F7574696E674368616E67652066726FCC
:1001F0006D2030780020746F203078003E20496DEB
:10020000616765566965774F6E0A003E20416374E9
:10021000697665536F757263653A203078003C20CB
:1002200053657453747265616D506174682C2070ED
:1002300068797341646472203078003C20526571A3
:1002400075657374416374697665536F7572636520
:100250000A003E20416374697665536F7572636569
:100260003A203078003C20416374697665536F759D
:100270007263652C207068797341646472203078F1
:10028000003C205374616E6442790A003C2053653F
:10029000744D656E754C616E677561676520003CD5
:1002A000204B6579446F776E20307800204D617067
:1002B000706564200A003C204B657955700A005B2C
:1002C000307800203E203078003A203078002C2012
:1002D000003078005D0A0001C12201C02201C10284
:1002E00001C12200120100020000002037130204A5
:1002F0000001010200010642FF0A0002A101750887
:10030000150026FF00952009018102952009029120
:1003100002C00631FF0974A1537508150026FF00BD
:10032000952009758102C005010906A10175019595
:1003300008050719E029E7150025018102950175D7
:100340000881039505750105081901290591029594
:1003500001750391039506750815002568050719B1
:100360000029688100C009025B00030100C0320956
:100370000400000203000002092111010001221CF7
:100380000007058103200008070502032000080973
:1003900004010001030000030921110100012215DD
:1003A0000007058403200001090402000103010184
:1003B00000092111010001223F0007058303080005
:1003C00001040309040C0348007900440065007629
:1003D0000000001003430045004300320055007345
:1003E00000620000000E03540073007900440062B4
:1003F000006700000000010000E40212000200009B
:1004000066035B00220000F6021C00210000780356
:1004100009002201001203150021010098030900C0
:1004200022020027033F00210200B103090003005C
:1004300000C1030401030904C5030C02030904D32A
:10044000031003030904E5030E0011241FBECFEFC0
:10045000D4E0DEBFCDBF11E0A0E0B1E0E6E3FEE115
:1004600002C005900D92A034B107D9F723E0A0E4B3
:10047000B1E001C01D92A634B207E1F73AD00C9466
:10048000190FBECDFC0121E030E001C0220F4A95DA
:10049000EAF795B1822F8095982385B195B93BE60F
:1004A0003A95F1F7282BAB01440F551FDA01A60F3F
:1004B000B71F87E087E001900000000095B9000CAD
:1004C00025B908F095B98150B9F7000C40F487E0E0
:1004D00095B9000025B91197019079F708C095B931
:1004E00087E025B9000095B91197019041F795B9BA
:1004F0000895CF93DF93CDB7DEB7C954D1400FB67F
:10050000F894DEBF0FBECDBF80E88093610081E02C
:1005100080936100279A2F9A27D33CD38823E9F34D
:100520002FEF4EE984E2215040408040E1F700C0C7
:1005300000002F988CD680E00E94C10A86E191E0ED
:10054000B5D284E0F0D285E291E0B0D260E084E000
:100550000E94C40A182F88E291E0A8D263E673E0F3
:1005600083E80E94FD0A61EB73E086E40E94FD0AC5
:1005700061EE73E08FE80E94FD0A61E074E080E9BB
:100580000E94FD0A69E774E085E80E94FD0A64E1C3
:1005900074E080E80E94FD0A6DE873E084E80E9440
:1005A000FD0A65EA74E082E80E94FD0A68E674E0EC
:1005B00086E80E94FD0A6DEB74E082E30E94FD0A6A
:1005C0006AEB74E086E30E94FD0A82E095E00E94F7
:1005D000F80A6AED74E084E40E94FD0A6EEF74E0AC
:1005E00085E40E94FD0A8CE291E060D2812F9BD2CB
:1005F0008AE012D3229AFE013196CE01895D9E4F88
:1006000010823396E817F907D9F7C85DDE4F1882D4
:10061000C852D140C75DDE4F1882C952D140F8940C
:1006200042E063E670E0CE0101962CDF789400E0B2
:1006300010E0E9D66AE0CE01865D9E4FAED28823F7
:10064000C1F3093291E01907A0F791E001151105F6
:1006500009F090E0981768F7E1E0F0E0EC0FFD1F7B
:10066000E00FF11FAAE2B1E0AC0FBD1FA90FB11D51
:100670002C91208398012F5F3F4F293241E03407AE
:10068000E9F0E1E0F0E0EC0FFD1FE20FF31F815015
:10069000891B8901080F111D9F5F2017310749F23F
:1006A000AAE2B1E0AC0FBD1FA90FB11D8C918193DF
:1006B0002F5F3F4F293281E0380771F7C2D5882379
:1006C00009F4B5CFACCFCF93DF9300D000D01F9209
:1006D000CDB7DEB78FE0898384E88A8380E28B839D
:1006E0001C8284E08D838BE391E0E0D180E090E296
:1006F00034D288E591E0DAD184E015D28AE08CD258
:1007000046E065E0CE010196CDD50F900F900F9099
:100710000F900F90DF91CF910895FF920F931F9349
:10072000CF93DF938B01FB01C281D381DC27CD27DF
:10073000DC27F48083E691E0B9D1F80180818295CD
:100740008F70F1D18CE791E0B1D1CE0106D28BE868
:1007500091E0ACD18F2DDF91CF911F910F91FF9040
:10076000E2C1CF93DF93CDB7DEB760970FB6F894B1
:10077000DEBF0FBECDBFFB01808182958F70898364
:1007800087E48A8387E0E8E3F1E0DE0113960190D5
:100790000D928A95E1F786E991E088D188E391E0AE
:1007A000A1D18AE039D246E069E0CE0101967AD53E
:1007B00060960FB6F894DEBF0FBECDBFDF91CF912C
:1007C0000895CF93DF9300D01F92CDB7DEB7FB0122
:1007D000808182958F70898380E98A831B8286EA73
:1007E00091E064D180E09FD18AE016D246E063E0D8
:1007F000CE01019657D50F900F900F90DF91CF91BA
:100800000895CF93DF93EB018CEB91E04FD188817A
:1008100082958F7088D188ED91E048D18A8183D10B
:100820008AE0DF91CF91F8C1EF92FF920F931F936F
:10083000CF93DF9300D000D0CDB7DEB7FB01E280CD
:10084000F380FE24EF24FE24048115811027012764
:1008500010278DED91E02AD1C7017FD185EF91E07E
:1008600025D1C8017AD18AE0D7D10115F0E21F075E
:1008700059F00F900F900F900F90DF91CF911F9133
:100880000F91FF90EF900895198284E08A8346E0EB
:1008900062E0CE01019606D58CEF91E007D18FE0A2
:1008A000898382E88A8380E28B831C828BE092E0DA
:1008B000FDD080E090E251D18AE0AED110934101A9
:1008C0000093400146E064E0CE010196EBD4D1CF25
:1008D000CF93DF93FB01C281D381DC27CD27DC27B7
:1008E0008EE192E0E3D0CE0138D18AE0DF91CF9162
:1008F00093C1CF93DF9300D000D0CDB7DEB78BE3A9
:1009000092E0D4D0809140019091410181159042B4
:1009100039F00F900F900F900F90DF91CF910895C5
:100920008FE0898382E88A8380E28B831C8282E560
:1009300092E0BCD080E090E210D18AE06DD146E038
:1009400064E0CE010196AED4E4CFCF93DF93FB01F8
:10095000C281D381DC27CD27DC27D0934101C0930E
:10096000400185E692E0A2D0CE01F7D08AE0DF9187
:10097000CF9152C181E892E099C0CF93DF9300D02C
:1009800000D0CDB7DEB7FB018281898383818A8362
:1009900084818B831C828CE892E088D0CE01019602
:1009A000A1D08AE039D10F900F900F900F90DF9176
:1009B000CF910895CF93FB01C2818FE992E076D069
:1009C0008C2FB1D0A4E0B1E081E2E0E005C0EF5FA0
:1009D000EB3189F08C911296C813F9CFF0E0EE0F4D
:1009E000FF1FEE5FFE4F40E0618180E069D18CEA3D
:1009F00092E0CF915BC08AE0CF910EC186EB92E08E
:100A000055D06DC1CF92DF92EF92FF920F931F935B
:100A1000CF93DF93C82F7B01D42F8FEB92E046D08A
:100A2000F701808182958F707ED083EC92E03ED07A
:100A3000F70180818F7077D080E2EED0C034A1F1D1
:100A400081E6EAD0D23040F089EC92E02FD0F70175
:100A5000818169D0D23059F484ED92E0DF91CF9159
:100A60001F910F91FF90EF90DF90CF901FC08EEC01
:100A700092E01CD0CD2ED12C87010E5F1F4FC2E01B
:100A800003C0CF5FCD1740F781ED92E00FD0F801A2
:100A900081918F0148D0C8018E199F098C159D0541
:100AA00084F780E2B9D0EDCF8EE6CBCF0F931F93C2
:100AB000CF938C010F5F1F4FFC01C491C11109C07E
:100AC0000DC08C2FA9D0F801C4910F5F1F4FCC230C
:100AD00029F0CA30B1F78DE09FD0F3CFCF911F91AD
:100AE0000F9108950F931F93CF938C010F5F1F4FAA
:100AF000FC01C081C11108C012C08C2F8DD0F8013B
:100B0000C1918F01CC2359F0CA30B9F78DE084D060
:100B10008C2F82D0F801C1918F01C111F5CFCF91F7
:100B20001F910F910895CF93C82F82958F708A30AF
:100B300050F097E3890F70D0CF70CA3050F087E340
:100B40008C0FCF9169C090E3890F66D0CF70CA3007
:100B5000B0F780E38C0FCF915FC0CF93C82F892F60
:100B6000E2DF8C2FCF91DFCF1092630080EA809379
:100B7000D80086E089BD09B400FEFDCF80E88093EF
:100B8000D8001092E00010924A018CE08093E200BD
:100B90007894089580914A01089520914A01222372
:100BA000B9F12FB7F89460934B0132E03093E9002C
:100BB0003091E80035FD1CC02FBF20914B0122234E
:100BC00049F120914A01222319F142E009C02FBFC7
:100BD00020914B012223F1F020914A012223C1F000
:100BE0002FB7F8944093E9003091E80035FFEFCF3C
:100BF000FC01AC01405E5F4F8091F1008193E417EE
:100C0000F507D1F78BE68093E8002FBF80E20895C7
:100C10008FEF089580E0089590914A01992309F497
:100C200040C09FB7F89424E02093E90020914F0141
:100C300021112FC03091E4003C5F2091E80025FD98
:100C40001CC09FBF9091E400391769F190914A014F
:100C5000992339F144E009C09FBF9091E40039170E
:100C600011F190914A019923E1F09FB7F8944093D4
:100C7000E9002091E80025FFEFCF8093F1008091FB
:100C8000E80085FF15C082E080934D019FBF80E0A2
:100C900008952091E80025FF03C010924F01CACFAC
:100CA0009FBF8FEF089581E080934F018FEF0895EC
:100CB0008AE38093E80010924D019FBF80E0089581
:100CC000863058F440934201E82FF0E0ED5BFE4F90
:100CD000608380914A01811101C0089574C210920D
:100CE000420110924301109244011092450110926A
:100CF0004601109247011092480180914A018111EA
:100D000001C0089560C21F920F920FB60F92112476
:100D10008F939F93EF93FF938091E1001092E100F6
:100D200083FF0FC01092E90091E09093EB001092C6
:100D3000EC0092E29093ED0098E09093F000109216
:100D40004A0182FF44C080914A01882309F43FC0D0
:100D500080914D018823A9F0815080934D0181112C
:100D600010C084E08093E9008091E80085FF06C010
:100D70001092F1008091E80085FDFACF8AE380931C
:100D8000E80080914B01882319F0815080934B013A
:100D900080914C01811124C0809101018823B9F018
:100DA000809150018F5F80935001837081F483E0C4
:100DB0008093E9008091E80085FF09C080914E0191
:100DC0008F5F80934E0190910101891769F0FF9127
:100DD000EF919F918F910F900FBE0F901F901895DC
:100DE000815080934C01D8CF10924E0180914201E6
:100DF0008093F1001092F100E3E4F1E0819180939F
:100E0000F10081E0E934F807C9F78AE38093E8004C
:100E1000DECF1F920F920FB60F9211242F933F93A4
:100E20004F935F936F937F938F939F93AF93BF93F2
:100E3000EF93FF931092E9008091E80083FF3BC09D
:100E4000E091F1008091F1002091F1009091F1008A
:100E500030E0392B4091F1009091F10050E0DA013F
:100E6000B92B4091F1009091F10050E0BA01792B3B
:100E700092EF9093E800863091F1853009F496C0A6
:100E8000893009F473C0883009F49BC0811104C112
:100E90008091E80080FFFCCFE23809F4F3C080E0E5
:100EA0008093F1001092F1008EEF8093E80006C06D
:100EB000129709F4D6C081E28093EB00FF91EF9185
:100EC000BF91AF919F918F917F916F915F914F9162
:100ED0003F912F910F900FBE0F901F90189585EFA7
:100EE00093E005C0079644E08934940721F3FC01A0
:100EF0004591549124173507A9F7FC013296459185
:100F00005491A417B50771F7FC013496459154919B
:100F1000FC01369624916F3F710511F008F09EC0D8
:100F2000621708F499C06EEF8091E800982F9570D1
:100F3000D9F382FDC3CF322F213298F130E2FA018A
:100F4000832F94919093F100815031968111F9CFC4
:100F50008FEF830F90E00196480F591F231B60937A
:100F6000E8002111E1CF3032F9F2A8CFEE2309F4E5
:100F70004EC0E13241F5109709F09ACF462F2BEF82
:100F8000942F413208F090E28091E80082FFFCCF7C
:100F90002093E800491BA1F78091E80080FFFCCF77
:100FA00026C02111CCCF6093E80088CF8EEF8093CC
:100FB000E8008091E80080FFFCCF20682093E300E8
:100FC0007DCFE038C1F0129709F075CFE13A09F40E
:100FD00086C0E13209F06FCF893009F442C08A300F
:100FE00009F4BBC08B3009F066CF209300018EEF6F
:100FF0008093E80063CF8091E80080FFFCCF809170
:101000004A018093F1008EEF8093E80057CF209340
:101010004A018EEF8093E80021E087ED92E0209373
:10102000E900AC014F5F5F4FFC0134913093EB005E
:10103000332331F1FA0144914093EC003196E4916D
:101040000396E093ED002F5F253049F78EE1809302
:10105000EA001092EA0032CF262F65CF6FEF70E0E2
:101060005FCF8091E80082FFFCCF8091F1008093F8
:1010700049018BEF8093E8008EEF8093E8001ECF4C
:10108000CA01E1CFA093E9008091EB0085FB88279E
:1010900080F91092E90004CF813009F08AC0E23073
:1010A00009F463C0E13A09F006CFA230B105B0F10E
:1010B000129709F000CF8091E80080FFFCCF80916B
:1010C00042018093F1001092F100E3E4F1E081919C
:1010D0008093F10041E0E934F407C9F788CF81300B
:1010E00051F3823079F0833009F0E5CE8091E80049
:1010F00080FFFCCF809100018093F1008EEF809300
:10110000E800DCCE8091E80080FFFCCF80910101F7
:101110008093F1008EEF8093E800D0CE462F2EEF23
:101120008091E800982F9570D9F382FDC7CE942F57
:10113000413270F090E2892F1092F1008150E1F776
:10114000491B2093E8004111EBCF903249F3B6CE12
:101150004111F1CF2093E800B1CE309301011092FC
:101160004E018EEF8093E800A9CE2115310509F0DC
:10117000A2CE4A2F4F779FEF940F9430B0F49EEF9A
:101180009093E8004093E900833009F494CE89E11C
:101190008093EB0081E090E001C0880F4A95EAF768
:1011A0008093EA001092EA0089CE813009F00BCFDB
:1011B00082CE833009F007CFE23009F004CF211549
:1011C0003105B9F200CF8FB7F89493E09093E9001E
:1011D0002091E4002E5C9091E80095FD1CC08FBF2B
:1011E00080914A01882361F18091E400281741F140
:1011F00033E009C08FBF80914A01882309F18091B3
:10120000E4002817E9F08FB7F8943093E900909143
:10121000E80095FFEFCF909142019093F10010927A
:10122000F100E3E4F1E091919093F10091E0E93471
:10123000F907C9F79AE39093E80010924E018FBF27
:1012400008959091A10181E0911180E00895539A51
:101250005B985298ECE6F1E011828FE08083109267
:10126000B7021092B60210924303109242031092FA
:1012700044031092450312AA14AA13AAE1E8F0E06D
:10128000808183608083EA9AEA98E9E6F0E08081D1
:101290008F7C8083808180618083E29AEA9ACCD1BE
:1012A00078940895AF92BF92CF92DF92EF92FF921F
:1012B0000F931F93CF93DF93309142032091430309
:1012C000321720F0109243031092420320914303FF
:1012D000263008F07FC0F62E20E1261708F485C0DE
:1012E0000091430310E0E801CC0FDD1F9E01200FA9
:1012F000311F220F331F220F331F220F331F201BDA
:10130000310BF901E854FD4F1082F901E754FD4F0C
:1013100027533D4F1192E217F307E1F7E42EBC018A
:10132000CE01800F911F880F991F880F991F880F7A
:10133000991F801B910B9C0124593E4F5901F901C3
:10134000E35AFE4F11821082329611821082329639
:101350001082CF2CD12CA60187549D4F61D5F50169
:10136000E35BFE4F8081982F92959F7031F49091AE
:101370006C019295907F892B8083C00FD11FCC0F79
:10138000DD1FCC0FDD1FCC0FDD1FC01BD10BC459DF
:10139000DE4FFE01EF59FE4FFA94F29490EFF922DE
:1013A000F082349731E0C31AD10881E090E002C0A6
:1013B000880F991FCA94E2F791838083CE59DE4F3C
:1013C000E882809143038F5F809343038091A10162
:1013D000882371F0DF91CF911F910F91FF90EF90D3
:1013E000DF90CF90BF90AF90089560E1F62E78CF58
:1013F000DF91CF911F910F91FF90EF90DF90CF90F1
:10140000BF90AF9019C1BF92CF92DF92EF92FF923F
:101410000F931F93CF93DF938091B6029091B70201
:10142000891708F0A4C0C12CD12C7601C3943BC00D
:1014300032970081118120E030E0D701C601042EEF
:1014400004C0880F991FAA1FBB1F0A94D2F70197E7
:10145000A109B109081719072A073B0709F482C037
:1014600080E4E0919F01F091A001413009F043C078
:10147000309769F06C0F7D1F660F771F660F771F1F
:10148000660F771F6C1B7D0B6D557E4F0995809104
:10149000B6028F5F8093B6029091B6028091B70238
:1014A000981708F064C0C091B602D0E0BE01660F84
:1014B000771FCB018C0F9D1F880F991F880F991FD5
:1014C000880F991F8C1B9D0B84599E4FFC01E55B77
:1014D000FF4F408142954F7009F0AACFFC01E75BB6
:1014E000FF4F80819181E0919F01F091A0010196D1
:1014F000D9F180E440E150919E01552309F4B8CF21
:10150000DB01AC0FBD1FAA0FBB1FAA0FBB1FAA0F89
:10151000BB1FAC1BBD0BA459BE4FD896BC9090E02E
:1015200004C09F5F951708F0A3CF092F10E0D801E2
:10153000AA0FBB1FA00FB11FA459BE4F12963C911A
:101540003B11EFCF98012F5F3F4FF901EE0FFF1FC7
:101550002E0F3F1FF901E459FE4F0190F081E02D5D
:10156000952FDFCF80E07DCF80E040E1C4CFDF91D9
:10157000CF911F910F91FF90EF90DF90CF90BF9090
:10158000089580936D0108951F93CF93DF931F9269
:10159000CDB7DEB7182F1F70662341F010936C0192
:1015A000812F0F90DF91CF911F910895812F829508
:1015B000807F812B898342E061E0CE01019672DE5B
:1015C0009091420380914303981760F48FEC97E069
:1015D0000197F1F700C0000090914203809143030E
:1015E0009817A0F3809145038330C1F28FEFD9CFD4
:1015F0009093A00180939F010895ACE6B1E0D2964C
:101600009C91D297292F30E0F901EE0FFF1FE20FD6
:10161000F31FE459FE4F82832F5F3F4FF901EE0F16
:10162000FF1F2E0F3F1FF901E459FE4F71836083A6
:101630009F5FD2969C930895CF93DF9310925501AC
:10164000E6E5F1E0119281E0E636F807D9F710926D
:101650006701109266011092690110926801109260
:101660006A011092A10180916D0180FD06C09091E8
:10167000420380914303981718F0DF91CF910895AA
:101680008091420390E021E02093550124E02093D3
:10169000A10110924503BC01660F771F680F791FE7
:1016A000660F771F660F771F660F771F681B790B12
:1016B000EB01C459DE4FFE01EF59FE4F40814295C8
:1016C0004F704F5F50E067547D4F86E591E0A8D39F
:1016D000C35ADE4F88819981909367018093660198
:1016E00010928500109284008EEC91E0909352014C
:1016F0008093510122E332E030935401209353014F
:10170000909389008093880082E086BB80916F006F
:10171000826080936F005B9ADF91CF9108959091E2
:10172000A101933039F19091A101923019F190917A
:10173000A1019530F9F091E09093A10180934403C9
:101740001092850010928400109252011092510163
:101750008CE291E09093540180935301909389001F
:101760008093880082E086BB80916F0082608093C6
:101770006F0008959091A101909345032091420339
:1017800030E0F901EE0FFF1FE20FF31FEE0FFF1F16
:10179000EE0FFF1FEE0FFF1FE21BF30BE253FD4F97
:1017A0009081915090839111C6CF909142039F5F99
:1017B00090934203C0CF1F920F920FB60F92112445
:1017C0002F933F934F935F936F937F938F939F9349
:1017D000AF93BF93EF93FF934A993CC08091A101CF
:1017E000811183C0109285001092840010925201E2
:1017F0001092510181E792E090935401809353013C
:10180000909389008093880082E086BB80916F006E
:10181000826080936F001092850010928400809106
:10182000A101803709F49BC08091A101803609F4A1
:1018300076C0FF91EF91BF91AF919F918F917F9172
:101840006F915F914F913F912F910F900FBE0F902D
:101850001F901895809184009091850083389105A0
:1018600010F591E08091A101803408F044C02091EE
:101870008800309189002B3B310509F430C12B34AD
:10188000310509F437C18091A101863091F680912C
:1018900056018F708F3009F437C1911138C189E03A
:1018A0008093A101C6CF853B21E09207B0F1883E2D
:1018B000914008F0BECF8091A101882309F456C061
:1018C0008091A101813009F451C08091A10184303F
:1018D00009F4AFCF83E5A0D98091A10124D984E098
:1018E0008093A10183E01BDFA4CF8091A10181300F
:1018F00009F091CF77CF20916A018091A1018034C6
:1019000009F4FBC008F04CC0823008F492CF83E2A7
:1019100083D98091A10107D98CCF90E0A3CF1092F9
:101920008500109284008BEB90E09093520180939D
:1019300051012CE231E030935401209353019093F4
:1019400089008093880082E086BB80916F0082606E
:1019500080936F005B9A80E58093A1016ACF10921B
:101960008500109284008BE490E0DFCF81E08093CB
:10197000550180E48093A10110925501E6E5F1E064
:10198000119281E0E636F807D9F7109267011092BC
:101990006601109269011092680110926A0149CFA4
:1019A000803509F0B4CF322F3F70E22FE295EF700F
:1019B000383008F481C0383009F4ADC0393009F04E
:1019C00038CF809156018F708F3009F4D7C09111B4
:1019D000D8C04E2F21E030E00E2E02C0220F331F60
:1019E0000A94E2F76091680170916901262B372B08
:1019F000309369012093680191E09E0F9295907F4A
:101A000090936A01E111B3C094E090935501209145
:101A1000660130916701042E02C0369527950A941D
:101A2000E2F720FD0BC0209168013091690102C0EE
:101A3000369527954A95E2F720FDFBCE90E19093ED
:101A4000550190EB9093A10190916C01891731F0B1
:101A50008F3021F080916D0181FF2BC08091B70202
:101A60008C3038F59091B6028091B702981720F02B
:101A70001092B7021092B6028091B70291E0980FCF
:101A80009093B70290E0DC01AA0FBB1FA80FB91F0B
:101A9000AA0FBB1FAA0FBB1FAA0FBB1FA81BB90B06
:101AA000AE55BE4F87E1E5E5F1E001900D928A95D4
:101AB000E1F785E034DEBDCEF0E0EB5AFE4F892F32
:101AC00047E050E0431B510901C0880F4A95EAF7EF
:101AD0009181892B81832F5F20936A01AACE913057
:101AE00009F0D1CE8CE498D882E08093A10183E004
:101AF00016DE9FCE9111C7CEF5CF82E080935501BF
:101B000080E58093A1014FCF913009F4C8CE8AE0DF
:101B10008093A1018ECE892F90E00E2E02C0880FF7
:101B2000991F0A94E2F74091660150916701842B56
:101B3000952B90936701809366012F5F20936A0134
:101B400090916D0190FD75CE80E78093A101809109
:101B500056018F708F3009F46CCE20916C01821386
:101B600068CEE13081F080E68093A10162CEE13061
:101B700009F04DCF98E09093550149CF913009F489
:101B800028CF4E2F39CF92FDEECF80919E01882332
:101B900009F44FCE2091570190916E01921719F3DD
:101BA000ECE6F1E0815090E063E070E022D1AC011E
:101BB00044595E4F04C0339692819217A1F2E41704
:101BC000F507C9F736CE1F920F920FB60F92112468
:101BD0002F933F934F935F936F937F938F939F9335
:101BE000AF93BF93EF93FF93809151019091520176
:101BF000892BD9F05B98109252011092510180917B
:101C0000530190915401892B81F18091530190915E
:101C10005401909389008093880082E086BB809174
:101C20006F00826080936F0025C080916F008D7F70
:101C300080936F0010925401109253018091A10182
:101C4000893049F1E091A1018E2F90E08135910515
:101C500040F08BE20E940C068091A1010E94930546
:101C600009C0FC01E65CFF4FD5C080916F008D7FFD
:101C700080936F00FF91EF91BF91AF919F918F91F2
:101C80007F916F915F914F913F912F910F900FBE78
:101C90000F901F90189580915501803209F49EC0D5
:101CA00085E08093A101E091A1018E2F90E0813524
:101CB000910578F6D6CF85E08093A10180916A01E5
:101CC000982F9F70E82FE295EF709830D8F5F0E0EC
:101CD000EB5AFE4F218130E047E050E0491B5109AB
:101CE00002C0359527954A95E2F721708F5F809362
:101CF0006A01211148C08BEB90E047C080914203FC
:101D00008F5F8093420387E00ADDB4CF83E0809346
:101D1000A10105DDAFCF809144038150809344033E
:101D2000882309F45DC010928500109284001092FF
:101D30005201109251018CE291E0909354018093F2
:101D4000530167CF9830E1F1993009F093CF81E0EA
:101D50008E0F8295807F80936A01E11143C084E0F9
:101D60008093550186E08093A10180916601909156
:101D7000670102C096958795EA95E2F780FF03C058
:101D800080E2809355018BE490E0109285001092E0
:101D9000840090935201809351012CE231E0309302
:101DA000540120935301909389008093880082E02E
:101DB00086BB80916F00826080936F005B9A5ACFE0
:101DC000209166013091670102C036952795EA950A
:101DD000E2F721708F5F80936A018BCF8BE061CF38
:101DE0002BDC48CFE13009F0BDCF88E0809355016E
:101DF000B9CF0024552704C0080E591F880F991F1A
:101E0000009729F076956795B8F37105B9F7802D9D
:101E1000952F0895EE0FFF1F0590F491E02D099482
:101E2000FB01DC0102C001900D9241505040D8F7F7
:061E30000895F894FFCFB5
:101E3600017D2159225A235B245C255D265E275F9E
:101E4600286029612062091A5306304B314E01522F
:101E560002510350044F00280D2A350C442C481516
:101E6600451B49094C2B4B4641726B486F6D65000B
:00000001FF
